{
  "_format": "hh-sol-artifact-1",
  "contractName": "Factory",
  "sourceName": "contracts/Factory.sol",
  "abi": [
    {
      "anonymous": false,
      "inputs": [
        {
          "indexed": false,
          "internalType": "address",
          "name": "tokenA",
          "type": "address"
        },
        {
          "indexed": false,
          "internalType": "address",
          "name": "tokenB",
          "type": "address"
        },
        {
          "indexed": false,
          "internalType": "address",
          "name": "pair",
          "type": "address"
        }
      ],
      "name": "PairCreated",
      "type": "event"
    },
    {
      "inputs": [
        {
          "internalType": "address",
          "name": "tokenA",
          "type": "address"
        },
        {
          "internalType": "address",
          "name": "tokenB",
          "type": "address"
        }
      ],
      "name": "createPair",
      "outputs": [
        {
          "internalType": "address",
          "name": "pair",
          "type": "address"
        }
      ],
      "stateMutability": "nonpayable",
      "type": "function"
    },
    {
      "inputs": [
        {
          "internalType": "address",
          "name": "",
          "type": "address"
        },
        {
          "internalType": "address",
          "name": "",
          "type": "address"
        }
      ],
      "name": "getPair",
      "outputs": [
        {
          "internalType": "address",
          "name": "",
          "type": "address"
        }
      ],
      "stateMutability": "view",
      "type": "function"
    }
  ],
  "bytecode": "0x6080604052348015600f57600080fd5b5061151d8061001f6000396000f3fe608060405234801561001057600080fd5b50600436106100365760003560e01c8063c9c653961461003b578063e6a439051461006b575b600080fd5b6100556004803603810190610050919061054c565b61009b565b604051610062919061059b565b60405180910390f35b6100856004803603810190610080919061054c565b61049a565b604051610092919061059b565b60405180910390f35b60008173ffffffffffffffffffffffffffffffffffffffff168373ffffffffffffffffffffffffffffffffffffffff160361010b576040517f08c379a000000000000000000000000000000000000000000000000000000000815260040161010290610613565b60405180910390fd5b600073ffffffffffffffffffffffffffffffffffffffff166000808573ffffffffffffffffffffffffffffffffffffffff1673ffffffffffffffffffffffffffffffffffffffff16815260200190815260200160002060008473ffffffffffffffffffffffffffffffffffffffff1673ffffffffffffffffffffffffffffffffffffffff16815260200190815260200160002060009054906101000a900473ffffffffffffffffffffffffffffffffffffffff1673ffffffffffffffffffffffffffffffffffffffff1614610215576040517f08c379a000000000000000000000000000000000000000000000000000000000815260040161020c9061067f565b60405180910390fd5b600060405180602001610227906104dc565b6020820181038252601f19601f820116604052509050600084846040516020016102529291906106e7565b604051602081830303815290604052805190602001209050808251602084016000f592508273ffffffffffffffffffffffffffffffffffffffff1663485cc95586866040518363ffffffff1660e01b81526004016102b1929190610713565b600060405180830381600087803b1580156102cb57600080fd5b505af11580156102df573d6000803e3d6000fd5b50505050826000808773ffffffffffffffffffffffffffffffffffffffff1673ffffffffffffffffffffffffffffffffffffffff16815260200190815260200160002060008673ffffffffffffffffffffffffffffffffffffffff1673ffffffffffffffffffffffffffffffffffffffff16815260200190815260200160002060006101000a81548173ffffffffffffffffffffffffffffffffffffffff021916908373ffffffffffffffffffffffffffffffffffffffff160217905550826000808673ffffffffffffffffffffffffffffffffffffffff1673ffffffffffffffffffffffffffffffffffffffff16815260200190815260200160002060008773ffffffffffffffffffffffffffffffffffffffff1673ffffffffffffffffffffffffffffffffffffffff16815260200190815260200160002060006101000a81548173ffffffffffffffffffffffffffffffffffffffff021916908373ffffffffffffffffffffffffffffffffffffffff1602179055507fa92a2b95c8d8436f6ac4c673c61487364f877efb9534d4296fad8ef904546c9485858560405161048a9392919061073c565b60405180910390a1505092915050565b60006020528160005260406000206020528060005260406000206000915091509054906101000a900473ffffffffffffffffffffffffffffffffffffffff1681565b610d748061077483390190565b600080fd5b600073ffffffffffffffffffffffffffffffffffffffff82169050919050565b6000610519826104ee565b9050919050565b6105298161050e565b811461053457600080fd5b50565b60008135905061054681610520565b92915050565b60008060408385031215610563576105626104e9565b5b600061057185828601610537565b925050602061058285828601610537565b9150509250929050565b6105958161050e565b82525050565b60006020820190506105b0600083018461058c565b92915050565b600082825260208201905092915050565b7f4964656e746963616c20746f6b656e7300000000000000000000000000000000600082015250565b60006105fd6010836105b6565b9150610608826105c7565b602082019050919050565b6000602082019050818103600083015261062c816105f0565b9050919050565b7f5061697220657869737473000000000000000000000000000000000000000000600082015250565b6000610669600b836105b6565b915061067482610633565b602082019050919050565b600060208201905081810360008301526106988161065c565b9050919050565b60008160601b9050919050565b60006106b78261069f565b9050919050565b60006106c9826106ac565b9050919050565b6106e16106dc8261050e565b6106be565b82525050565b60006106f382856106d0565b60148201915061070382846106d0565b6014820191508190509392505050565b6000604082019050610728600083018561058c565b610735602083018461058c565b9392505050565b6000606082019050610751600083018661058c565b61075e602083018561058c565b61076b604083018461058c565b94935050505056fe6080604052348015600f57600080fd5b50610d558061001f6000396000f3fe608060405234801561001057600080fd5b506004361061007d5760003560e01c80635f64b55b1161005b5780635f64b55b146100da5780639cd441da146100f8578063d004f0f714610114578063dc5fa6c5146101305761007d565b80630fc63d101461008257806319e36f3b146100a0578063485cc955146100be575b600080fd5b61008a61014e565b60405161009791906108cc565b60405180910390f35b6100a8610172565b6040516100b59190610900565b60405180910390f35b6100d860048036038101906100d3919061094c565b610178565b005b6100e26102e6565b6040516100ef91906108cc565b60405180910390f35b610112600480360381019061010d91906109b8565b61030c565b005b61012e600480360381019061012991906109f8565b610486565b005b610138610885565b6040516101459190610900565b60405180910390f35b60008054906101000a900473ffffffffffffffffffffffffffffffffffffffff1681565b60035481565b600073ffffffffffffffffffffffffffffffffffffffff1660008054906101000a900473ffffffffffffffffffffffffffffffffffffffff1673ffffffffffffffffffffffffffffffffffffffff161480156102225750600073ffffffffffffffffffffffffffffffffffffffff16600160009054906101000a900473ffffffffffffffffffffffffffffffffffffffff1673ffffffffffffffffffffffffffffffffffffffff16145b610261576040517f08c379a000000000000000000000000000000000000000000000000000000000815260040161025890610a95565b60405180910390fd5b816000806101000a81548173ffffffffffffffffffffffffffffffffffffffff021916908373ffffffffffffffffffffffffffffffffffffffff16021790555080600160006101000a81548173ffffffffffffffffffffffffffffffffffffffff021916908373ffffffffffffffffffffffffffffffffffffffff1602179055505050565b600160009054906101000a900473ffffffffffffffffffffffffffffffffffffffff1681565b60008054906101000a900473ffffffffffffffffffffffffffffffffffffffff1673ffffffffffffffffffffffffffffffffffffffff166323b872dd3330856040518463ffffffff1660e01b815260040161036993929190610ab5565b6020604051808303816000875af1158015610388573d6000803e3d6000fd5b505050506040513d601f19601f820116820180604052508101906103ac9190610b24565b50600160009054906101000a900473ffffffffffffffffffffffffffffffffffffffff1673ffffffffffffffffffffffffffffffffffffffff166323b872dd3330846040518463ffffffff1660e01b815260040161040c93929190610ab5565b6020604051808303816000875af115801561042b573d6000803e3d6000fd5b505050506040513d601f19601f8201168201806040525081019061044f9190610b24565b5081600260008282546104629190610b80565b92505081905550806003600082825461047b9190610b80565b925050819055505050565b60008054906101000a900473ffffffffffffffffffffffffffffffffffffffff1673ffffffffffffffffffffffffffffffffffffffff168273ffffffffffffffffffffffffffffffffffffffff16148061052d5750600160009054906101000a900473ffffffffffffffffffffffffffffffffffffffff1673ffffffffffffffffffffffffffffffffffffffff168273ffffffffffffffffffffffffffffffffffffffff16145b61056c576040517f08c379a000000000000000000000000000000000000000000000000000000000815260040161056390610c00565b60405180910390fd5b60008060009054906101000a900473ffffffffffffffffffffffffffffffffffffffff1673ffffffffffffffffffffffffffffffffffffffff168373ffffffffffffffffffffffffffffffffffffffff16146105e85760008054906101000a900473ffffffffffffffffffffffffffffffffffffffff1661060c565b600160009054906101000a900473ffffffffffffffffffffffffffffffffffffffff165b905060008060008054906101000a900473ffffffffffffffffffffffffffffffffffffffff1673ffffffffffffffffffffffffffffffffffffffff168573ffffffffffffffffffffffffffffffffffffffff161461066f57600354600254610676565b6002546003545b9150915060006103e86103e58661068d9190610c20565b6106979190610c91565b9050600081846106a79190610b80565b82846106b39190610c20565b6106bd9190610c91565b90508673ffffffffffffffffffffffffffffffffffffffff166323b872dd3330896040518463ffffffff1660e01b81526004016106fc93929190610ab5565b6020604051808303816000875af115801561071b573d6000803e3d6000fd5b505050506040513d601f19601f8201168201806040525081019061073f9190610b24565b508473ffffffffffffffffffffffffffffffffffffffff1663a9059cbb33836040518363ffffffff1660e01b815260040161077b929190610cc2565b6020604051808303816000875af115801561079a573d6000803e3d6000fd5b505050506040513d601f19601f820116820180604052508101906107be9190610b24565b5060008054906101000a900473ffffffffffffffffffffffffffffffffffffffff1673ffffffffffffffffffffffffffffffffffffffff168773ffffffffffffffffffffffffffffffffffffffff16036108495785600260008282546108249190610b80565b92505081905550806003600082825461083d9190610ceb565b9250508190555061087c565b856003600082825461085b9190610b80565b9250508190555080600260008282546108749190610ceb565b925050819055505b50505050505050565b60025481565b600073ffffffffffffffffffffffffffffffffffffffff82169050919050565b60006108b68261088b565b9050919050565b6108c6816108ab565b82525050565b60006020820190506108e160008301846108bd565b92915050565b6000819050919050565b6108fa816108e7565b82525050565b600060208201905061091560008301846108f1565b92915050565b600080fd5b610929816108ab565b811461093457600080fd5b50565b60008135905061094681610920565b92915050565b600080604083850312156109635761096261091b565b5b600061097185828601610937565b925050602061098285828601610937565b9150509250929050565b610995816108e7565b81146109a057600080fd5b50565b6000813590506109b28161098c565b92915050565b600080604083850312156109cf576109ce61091b565b5b60006109dd858286016109a3565b92505060206109ee858286016109a3565b9150509250929050565b60008060408385031215610a0f57610a0e61091b565b5b6000610a1d85828601610937565b9250506020610a2e858286016109a3565b9150509250929050565b600082825260208201905092915050565b7f416c726561647920696e697469616c697a656400000000000000000000000000600082015250565b6000610a7f601383610a38565b9150610a8a82610a49565b602082019050919050565b60006020820190508181036000830152610aae81610a72565b9050919050565b6000606082019050610aca60008301866108bd565b610ad760208301856108bd565b610ae460408301846108f1565b949350505050565b60008115159050919050565b610b0181610aec565b8114610b0c57600080fd5b50565b600081519050610b1e81610af8565b92915050565b600060208284031215610b3a57610b3961091b565b5b6000610b4884828501610b0f565b91505092915050565b7f4e487b7100000000000000000000000000000000000000000000000000000000600052601160045260246000fd5b6000610b8b826108e7565b9150610b96836108e7565b9250828201905080821115610bae57610bad610b51565b5b92915050565b7f496e76616c696420746f6b656e00000000000000000000000000000000000000600082015250565b6000610bea600d83610a38565b9150610bf582610bb4565b602082019050919050565b60006020820190508181036000830152610c1981610bdd565b9050919050565b6000610c2b826108e7565b9150610c36836108e7565b9250828202610c44816108e7565b91508282048414831517610c5b57610c5a610b51565b5b5092915050565b7f4e487b7100000000000000000000000000000000000000000000000000000000600052601260045260246000fd5b6000610c9c826108e7565b9150610ca7836108e7565b925082610cb757610cb6610c62565b5b828204905092915050565b6000604082019050610cd760008301856108bd565b610ce460208301846108f1565b9392505050565b6000610cf6826108e7565b9150610d01836108e7565b9250828203905081811115610d1957610d18610b51565b5b9291505056fea2646970667358221220dd65494a9440ac1628ded1bae9f594657dd4e76acebdc9c0742ac0cbdf40a48e64736f6c634300081c0033a2646970667358221220f3d97b217ad5c54765714ad28d1fe373d3ec37ed9627a263b81722a1feabb4cb64736f6c634300081c0033",
  "linkReferences": {},
  "deployedLinkReferences": {}
}